:020000040000FA
:100000000C945D000C9485000C9485000C94850084
:100010000C9485000C9485000C9485000C9485004C
:100020000C9485000C9485000C9485000C9485003C
:100030000C9485000C9485000C9485000C9485002C
:100040000C948B020C9485000C9459020C9433028E
:100050000C9485000C9485000C9485000C9485000C
:100060000C9485000C9485000000000024002700FB
:100070002A0000000000250028002B0004040404CE
:100080000404040402020202020203030303030342
:10009000010204081020408001020408102001021F
:1000A00004081020000000080002010000030407FB
:1000B0000000000000000000270411241FBECFEF45
:1000C000D8E0DEBFCDBF11E0A0E0B1E0ECEFF8E09A
:1000D00002C005900D92A631B107D9F721E0A6E143
:1000E000B1E001C01D92AE3BB207E1F710E0CDE5F3
:1000F000D0E004C02197FE010E947604CC35D107E0
:10010000C9F70E94D5020C947C040C940000E2EB29
:10011000F0E02491EEE9F0E09491EAE8F0E0E49177
:10012000EE23C9F0222339F0233001F1A8F4213065
:1001300019F1223029F1F0E0EE0FFF1FEE58FF4FCA
:10014000A591B4912FB7F894EC91811126C09095A8
:100150009E239C932FBF08952730A9F02830C9F023
:10016000243049F7209180002F7D03C0209180002A
:100170002F7720938000DFCF24B52F7724BDDBCFEE
:1001800024B52F7DFBCF2091B0002F772093B000B6
:10019000D2CF2091B0002F7DF9CF9E2BDACFAF9236
:1001A000BF92CF92DF92EF92FF920F931F93CF9364
:1001B000DF936C017B018B01040F151FEB015E01C6
:1001C000AE18BF08C017D10759F06991D601ED915B
:1001D000FC910190F081E02DC6010995892B79F7FA
:1001E000C501DF91CF911F910F91FF90EF90DF90AC
:1001F000CF90BF90AF900895FC01538D448D252F73
:1002000030E0842F90E0821B930B541710F0CF96B0
:10021000089501970895FC01918D828D981761F0E2
:10022000A28DAE0FBF2FB11D5D968C91928D9F5FF9
:100230009F73928F90E008958FEF9FEF0895FC01D8
:10024000918D828D981731F0828DE80FF11D858D8B
:1002500090E008958FEF9FEF0895FC01918D228D1E
:10026000892F90E0805C9F4F821B91098F739927A3
:1002700008958FE191E00E942D0121E0892B09F47E
:1002800020E0822F089580E090E0892B29F00E94E1
:10029000390181110C9400000895FC01A48DA80F70
:1002A000B92FB11DA35ABF4F2C91848D90E00196B8
:1002B0008F739927848FA689B7892C93A089B189D8
:1002C0008C91837080648C93938D848D981306C079
:1002D0000288F389E02D80818F7D80830895EF92DD
:1002E000FF920F931F93CF93DF93EC0181E0888FF0
:1002F0009B8D8C8D98131AC0E889F989808185FFC0
:1003000015C09FB7F894EE89FF896083E889F98961
:1003100080818370806480839FBF81E090E0DF9163
:10032000CF911F910F91FF90EF900895F62E0B8DB6
:1003300010E00F5F1F4F0F731127E02E8C8D8E1171
:100340000CC00FB607FCFACFE889F989808185FFD8
:10035000F5CFCE010E944D01F1CFEB8DEC0FFD2FBB
:10036000F11DE35AFF4FF0829FB7F8940B8FEA8993
:10037000FB8980818062CFCFCF93DF93EC01888DA2
:100380008823B9F0AA89BB89E889F9898C9185FD10
:1003900003C0808186FD0DC00FB607FCF7CF8C919E
:1003A00085FFF2CF808185FFEDCFCE010E944D0108
:1003B000E9CFDF91CF9108953FB7F89480911B0169
:1003C00090911C01A0911D01B0911E0126B5A89B22
:1003D00005C02F3F19F00196A11DB11D3FBFBA2FD7
:1003E000A92F982F8827BC01CD01620F711D811D97
:1003F000911D42E0660F771F881F991F4A95D1F71C
:1004000008958F929F92AF92BF92CF92DF92EF9218
:10041000FF924B015C010E94DC016B017C010E9498
:10042000DC016C197D098E099F09683E73408105C6
:100430009105A8F321E0821A9108A108B10888EE7D
:10044000C80E83E0D81EE11CF11C81149104A104A4
:10045000B10429F7FF90EF90DF90CF90BF90AF905D
:100460009F908F9008951F920F920FB60F921124B4
:100470002F933F934F935F936F937F938F939F93AC
:10048000AF93BF93EF93FF938FE191E00E944D01F3
:10049000FF91EF91BF91AF919F918F917F916F915C
:1004A0005F914F913F912F910F900FBE0F901F9032
:1004B00018951F920F920FB60F9211242F938F93BE
:1004C0009F93EF93FF93E0912F01F0913001808192
:1004D000E0913501F091360182FD1BC09081809141
:1004E00038018F5F8F7320913901821741F0E091BD
:1004F0003801F0E0E15EFE4F958F80933801FF9167
:10050000EF919F918F912F910F900FBE0F901F90A1
:1005100018958081F4CF1F920F920FB60F9211247D
:100520002F933F938F939F93AF93BF938091170126
:1005300090911801A0911901B0911A013091160102
:1005400023E0230F2D3758F50196A11DB11D2093EF
:1005500016018093170190931801A0931901B0938D
:100560001A0180911B0190911C01A0911D01B09175
:100570001E010196A11DB11D80931B0190931C01CA
:10058000A0931D01B0931E01BF91AF919F918F91D8
:100590003F912F910F900FBE0F901F90189526E856
:1005A000230F0296A11DB11DD2CFCF93DF93CDB7FC
:1005B000DEB7A1970FB6F894DEBF0FBECDBF78941B
:1005C00084B5826084BD84B5816084BD85B5826058
:1005D00085BD85B5816085BD80916E008160809309
:1005E0006E00109281008091810082608093810072
:1005F0008091810081608093810080918000816082
:10060000809380008091B10084608093B1008091DC
:10061000B00081608093B00080917A008460809304
:100620007A0080917A00826080937A0080917A00CB
:10063000816080937A0080917A00806880937A004C
:100640001092C100EEE9F0E02491EAE8F0E0849134
:10065000882399F090E0880F991FFC01E859FF4F1B
:10066000A591B491FC01EE58FF4F859194918FB7FD
:10067000F894EC91E22BEC938FBFEFE9F0E024913A
:10068000EBE8F0E084918823C9F090E0880F991F8F
:10069000FC01E859FF4F45915491FC01EE58FF4F82
:1006A000A591B4919FB7F894FA0180812095822397
:1006B00080838C91E22FE823EC939FBFE0912F0180
:1006C000F091300182E08083E0912B01F0912C01C8
:1006D0001082E0912D01F0912E018FEC8083109219
:1006E0003701E0913301F091340186E08083E0919D
:1006F0003101F0913201808180618083E09131018C
:10070000F0913201808188608083E0913101F09125
:100710003201808180688083E0913101F091320163
:1007200080818F7D808321E4B22E00E010E081E0A3
:100730000E9487006AE070E080E090E00E94010281
:10074000B0927C0080917A00806480937A008091DE
:100750007A0086FDFCCF8091780080907900982CFB
:10076000882E9092BD018092BC0180E00E9487009B
:100770006401092C000CEE08FF0897FE4DC06DE2E5
:100780008FE191E00E946F0122273327A9012C19E4
:100790003D094E095F0919A2CE0181967C019AE0BC
:1007A000492E512C612C712CCA01B901A30192016F
:1007B0000E945404605DF70162937F0121153105A9
:1007C0004105510589F7E114F10461F00190002021
:1007D000E9F73197AF014E195F09B7018FE191E059
:1007E0000E94CF0042E050E062E171E08FE191E0D1
:1007F0000E94CF0068EE73E080E090E00E9401026A
:100800000115110509F493CF0E943901882309F4D9
:100810008ECF0E9400008BCFA701960119A2CE01B6
:1008200081967C018AE0482E512C612C712CCA01E2
:10083000B901A30192010E945404605DF701629323
:100840007F01211531054105510589F7BCCFEFE145
:10085000F1E01382128288EE93E0A0E0B0E084839E
:100860009583A683B78384E091E09183808385ECB0
:1008700090E09587848784EC90E09787868780EC6A
:1008800090E0918B808B81EC90E0938B828B82EC5B
:1008900090E0958B848B86EC90E0978B868B118E05
:1008A000128E138E148E0895A1E21A2EAA1BBB1B62
:1008B000FD010DC0AA1FBB1FEE1FFF1FA217B3072C
:1008C000E407F50720F0A21BB30BE40BF50B661F42
:1008D000771F881F991F1A9469F760957095809506
:1008E00090959B01AC01BD01CF010895EE0FFF1F54
:1008F0000590F491E02D0994F894FFCF00000000DA
:100900006F01CF00FC00BC012D010B011F010D0A7E
:020910000000E5
:107E000085E08093810082E08093C00088E18093C8
:107E1000C10086E08093C20080E18093C40084B7F3
:107E200014BE81FFD0D089E2C8D0259A86E020E335
:107E30003CEF91E0309385002093840096BBB09B8B
:107E4000FECF1D9AA8958150A9F7DD24D394A5E013
:107E5000EA2EF1E1FF2EA4D0813421F481E0BED0DE
:107E600083E024C0823411F484E103C0853419F422
:107E700085E0B4D08AC08535A1F492D0082F10E0F7
:107E800010930102009300028BD090E0982F882776
:107E9000802B912B880F991F9093010280930002F1
:107EA00073C0863529F484E099D080E071D06DC02C
:107EB000843609F043C07CD0E0910002F0910102C9
:107EC00083E080935700E895C0E0D1E069D08993C2
:107ED000809102028150809302028823B9F778D002
:107EE00007B600FCFDCF4091000250910102A0E0D6
:107EF000B1E02C9130E011968C91119790E0982F81
:107F00008827822B932B1296FA010C01D0925700EE
:107F1000E89511244E5F5F4FF1E0A038BF0749F7A5
:107F2000E0910002F0910102E0925700E89507B657
:107F300000FCFDCFF0925700E89527C08437B9F4D4
:107F400037D046D0E0910002F09101023196F093D3
:107F50000102E09300023197E4918E2F19D08091B5
:107F60000202815080930202882361F70EC0853798
:107F700039F42ED08EE10CD085E90AD08FE096CF6F
:107F8000813511F488E019D023D080E101D063CF8E
:107F9000982F8091C00085FFFCCF9093C600089574
:107FA000A8958091C00087FFFCCF8091C6000895FE
:107FB000F7DFF6DF80930202F3CFE0E6F0E098E12E
:107FC00090838083089580E0F8DFEE27FF270994EF
:107FD000E7DF803209F0F7DF84E1DACF1F93182F53
:0C7FE000DFDF1150E9F7F4DF1F91089576
:00000001FF
